:020000001028C6
:10000800FE00030EF1000408F2000A08F300831250
:1000180003137F08F4001D281128F901F501F601E2
:10002800F701F801A601A701A801A901AA01830106
:10003800472A8C1EC328981C262818121816F50162
:100048007910A8011A08F0007008F6004128791400
:100058003E2879104928791C49287608F00070084C
:10006800F5000130F0007008A80702302802031CD0
:1000780049287910F501A80149287608233A031977
:100088002D28633A03192B282F287918C3287508B7
:10009800031DA428C328050C0139F0000130F0061F
:1000A800F00D05087006FD399728050CF000700C56
:1000B8000139F0000130F006F00DF00D050870066A
:1000C800FB399728050CF000F00C700C0139F00092
:1000D8000130F006F00DF00DF00D05087006F73947
:1000E8009728050E0139F0000130F006F00E0508DA
:1000F8007006EF399728050EF000700C0139F000F2
:100108000130F006F00EF00D05087006DF3997286B
:10011800050D050D0139F0000130F006F00CF00C6A
:10012800050870067F3970068500C128F701F70AAF
:10013800C1280230A0280330F0007008F700C12859
:100148007508303A03199A28013A03199D28033A89
:1001580003199F28733A03194F28033A031959289A
:10016800013A03196628073A03197528013A031951
:100178007F28033A03198C28C128F501A8010B1D13
:10018800E7280B11063081000130A6070318A70ADB
:100198000030A707F4302606031DE7282703031DB0
:1001A800E728050EF000F00C700C0139F000013062
:1001B800F006F00EF00DF00D05087006BF39700658
:1001C8008500A601A7017408FF0073088A00720859
:1001D8008400710E8300FE0E7E0E090030308316F7
:1001E800031390049019FA28101DF628831203139C
:1001F8001F108316031385018316031785018312C5
:1002080003138501851005118511051285128513C3
:10021800FF30831603138600831603178601FF3009
:10022800831603139500F030831203139705F030FB
:100238009D058316031307148714071587110712E2
:10024800871283120313071287128711981718133E
:1002580018168316031318139816181218156730F2
:100268009900811281110108F8390338810006309C
:100278008312031381000B118B168C128316031340
:100288008C16023083120313A2000430A100BA3086
:10029800A000A00B4D29A10B4D29A20B4D29000050
:1002A8000B178B17023083120313A2000430A1002E
:1002B800BA30A000A00B5E29A10B5E29A20B5E2913
:1002C800000008007708831203132A0203187D2907
:1002D80002307806031D7C292D2234308312031343
:1002E800A500F130A400A40B7729A50B77297C2958
:1002F8001622831203132A08770203189329780316
:10030800031D92292D22343083120313A500F130E6
:10031800A400A40B8D29A50B8D299229E521831210
:10032800031329087706031D08002D2208008312ED
:100338000313A901071DA729A901A90AAA01AA0A45
:100348000130FE210800871CB4290230A5002508C9
:10035800A9000230A5002508AA000B30FE210800DC
:10036800071C08000330A5002508A9000330A500D4
:100378002508AA001530FE21080001308A0004086B
:10038800840A8207003440347034693461346E342E
:100398006F343A343134233400344034703469349F
:1003A80061346E346F343A34323423340034403498
:1003B8007034693461346E346F343A3433342334EE
:1003C800003483120313071DEB292D22080087151B
:1003D8003430A300F130A200A20BF029A30BF029BE
:1003E800F52983120313071287160230A200220888
:1003F800F800080083120313A4007030A10021083C
:10040800A200013083120313A407FF3024078400DD
:10041800C121A1002108A30023080319080023080B
:100428003F22052A83120313071C1C2A2D220800C9
:1004380087153430A300F130A200A20B212AA30BA8
:10044800212A262A8312031307168712F801F80AAD
:1004580008008312031387113430A100F130A00083
:10046800A00B342AA10B342A392A8312031307124A
:100478008712F801080083120313A0000C1E422AF9
:0E048800200899000800F22066219B21482AD6
:04400E00E4FFCFFFFD
:00000001FF
